{
	"contracts/ViperGovernorTimelockAttack.sol": {
		"TimelockAttack": {
			"abi": [
				{
					"inputs": [
						{
							"internalType": "bytes32",
							"name": "role",
							"type": "bytes32"
						},
						{
							"internalType": "address",
							"name": "account",
							"type": "address"
						}
					],
					"name": "hasRole",
					"outputs": [
						{
							"internalType": "bool",
							"name": "",
							"type": "bool"
						}
					],
					"stateMutability": "view",
					"type": "function"
				}
			],
			"devdoc": {
				"kind": "dev",
				"methods": {},
				"version": 1
			},
			"evm": {
				"assembly": "    /* \"contracts/ViperGovernorTimelockAttack.sol\":96:365  contract TimelockAttack {... */\n  mstore(0x40, 0x80)\n    /* \"contracts/ViperGovernorTimelockAttack.sol\":126:227  TimelockController timelock = TimelockController(address(0xF1B34984eCe0ffB0233Ad60e7dDab74770e394b9)) */\n  0x00\n  dup1\n  sload\n  not(sub(shl(0xa0, 0x01), 0x01))\n  and\n    /* \"contracts/ViperGovernorTimelockAttack.sol\":183:225  0xF1B34984eCe0ffB0233Ad60e7dDab74770e394b9 */\n  0xf1b34984ece0ffb0233ad60e7ddab74770e394b9\n    /* \"contracts/ViperGovernorTimelockAttack.sol\":126:227  TimelockController timelock = TimelockController(address(0xF1B34984eCe0ffB0233Ad60e7dDab74770e394b9)) */\n  or\n  swap1\n  sstore\n    /* \"contracts/ViperGovernorTimelockAttack.sol\":96:365  contract TimelockAttack {... */\n  callvalue\n  dup1\n  iszero\n  tag_1\n  jumpi\n  0x00\n  dup1\n  revert\ntag_1:\n  pop\n  dataSize(sub_0)\n  dup1\n  dataOffset(sub_0)\n  0x00\n  codecopy\n  0x00\n  return\nstop\n\nsub_0: assembly {\n        /* \"contracts/ViperGovernorTimelockAttack.sol\":96:365  contract TimelockAttack {... */\n      mstore(0x40, 0x80)\n      callvalue\n      dup1\n      iszero\n      tag_1\n      jumpi\n      0x00\n      dup1\n      revert\n    tag_1:\n      pop\n      jumpi(tag_2, lt(calldatasize, 0x04))\n      shr(0xe0, calldataload(0x00))\n      dup1\n      0x91d14854\n      eq\n      tag_3\n      jumpi\n    tag_2:\n      0x00\n      dup1\n      revert\n        /* \"contracts/ViperGovernorTimelockAttack.sol\":233:363  function hasRole(bytes32 role, address account) public view returns (bool) {... */\n    tag_3:\n      tag_4\n      tag_5\n      calldatasize\n      0x04\n      tag_6\n      jump\t// in\n    tag_5:\n      tag_7\n      jump\t// in\n    tag_4:\n      mload(0x40)\n        /* \"#utility.yul\":820:834   */\n      swap1\n      iszero\n        /* \"#utility.yul\":813:835   */\n      iszero\n        /* \"#utility.yul\":795:836   */\n      dup2\n      mstore\n        /* \"#utility.yul\":783:785   */\n      0x20\n        /* \"#utility.yul\":768:786   */\n      add\n        /* \"contracts/ViperGovernorTimelockAttack.sol\":233:363  function hasRole(bytes32 role, address account) public view returns (bool) {... */\n      mload(0x40)\n      dup1\n      swap2\n      sub\n      swap1\n      return\n    tag_7:\n        /* \"contracts/ViperGovernorTimelockAttack.sol\":302:306  bool */\n      0x00\n        /* \"contracts/ViperGovernorTimelockAttack.sol\":325:333  timelock */\n      dup1\n      sload\n        /* \"contracts/ViperGovernorTimelockAttack.sol\":325:356  timelock.hasRole(role, account) */\n      mload(0x40)\n      shl(0xe2, 0x24745215)\n      dup2\n      mstore\n      0x04\n      dup2\n      add\n        /* \"#utility.yul\":1021:1046   */\n      dup6\n      swap1\n      mstore\n      sub(shl(0xa0, 0x01), 0x01)\n        /* \"#utility.yul\":1082:1114   */\n      dup5\n      dup2\n      and\n        /* \"#utility.yul\":1062:1080   */\n      0x24\n      dup4\n      add\n        /* \"#utility.yul\":1055:1115   */\n      mstore\n        /* \"contracts/ViperGovernorTimelockAttack.sol\":325:333  timelock */\n      swap1\n      swap2\n      and\n      swap1\n        /* \"contracts/ViperGovernorTimelockAttack.sol\":325:341  timelock.hasRole */\n      0x91d14854\n      swap1\n        /* \"#utility.yul\":994:1012   */\n      0x44\n      add\n        /* \"contracts/ViperGovernorTimelockAttack.sol\":325:356  timelock.hasRole(role, account) */\n      0x20\n      mload(0x40)\n      dup1\n      dup4\n      sub\n      dup2\n      dup7\n      dup1\n      extcodesize\n      iszero\n      dup1\n      iszero\n      tag_13\n      jumpi\n      0x00\n      dup1\n      revert\n    tag_13:\n      pop\n      gas\n      staticcall\n      iszero\n      dup1\n      iszero\n      tag_15\n      jumpi\n      returndatasize\n      0x00\n      dup1\n      returndatacopy\n      revert(0x00, returndatasize)\n    tag_15:\n      pop\n      pop\n      pop\n      pop\n      mload(0x40)\n      returndatasize\n      not(0x1f)\n      0x1f\n      dup3\n      add\n      and\n      dup3\n      add\n      dup1\n      0x40\n      mstore\n      pop\n      dup2\n      add\n      swap1\n      tag_16\n      swap2\n      swap1\n      tag_17\n      jump\t// in\n    tag_16:\n        /* \"contracts/ViperGovernorTimelockAttack.sol\":318:356  return timelock.hasRole(role, account) */\n      swap4\n        /* \"contracts/ViperGovernorTimelockAttack.sol\":233:363  function hasRole(bytes32 role, address account) public view returns (bool) {... */\n      swap3\n      pop\n      pop\n      pop\n      jump\t// out\n        /* \"#utility.yul\":14:291   */\n    tag_17:\n        /* \"#utility.yul\":81:87   */\n      0x00\n        /* \"#utility.yul\":134:136   */\n      0x20\n        /* \"#utility.yul\":122:131   */\n      dup3\n        /* \"#utility.yul\":113:120   */\n      dup5\n        /* \"#utility.yul\":109:132   */\n      sub\n        /* \"#utility.yul\":105:137   */\n      slt\n        /* \"#utility.yul\":102:154   */\n      iszero\n      tag_20\n      jumpi\n        /* \"#utility.yul\":150:151   */\n      0x00\n        /* \"#utility.yul\":147:148   */\n      dup1\n        /* \"#utility.yul\":140:152   */\n      revert\n        /* \"#utility.yul\":102:154   */\n    tag_20:\n        /* \"#utility.yul\":182:191   */\n      dup2\n        /* \"#utility.yul\":176:192   */\n      mload\n        /* \"#utility.yul\":235:240   */\n      dup1\n        /* \"#utility.yul\":228:241   */\n      iszero\n        /* \"#utility.yul\":221:242   */\n      iszero\n        /* \"#utility.yul\":214:219   */\n      dup2\n        /* \"#utility.yul\":211:243   */\n      eq\n        /* \"#utility.yul\":201:261   */\n      tag_16\n      jumpi\n        /* \"#utility.yul\":257:258   */\n      0x00\n        /* \"#utility.yul\":254:255   */\n      dup1\n        /* \"#utility.yul\":247:259   */\n      revert\n        /* \"#utility.yul\":296:650   */\n    tag_6:\n        /* \"#utility.yul\":364:370   */\n      0x00\n        /* \"#utility.yul\":372:378   */\n      dup1\n        /* \"#utility.yul\":425:427   */\n      0x40\n        /* \"#utility.yul\":413:422   */\n      dup4\n        /* \"#utility.yul\":404:411   */\n      dup6\n        /* \"#utility.yul\":400:423   */\n      sub\n        /* \"#utility.yul\":396:428   */\n      slt\n        /* \"#utility.yul\":393:445   */\n      iszero\n      tag_23\n      jumpi\n        /* \"#utility.yul\":441:442   */\n      0x00\n        /* \"#utility.yul\":438:439   */\n      dup1\n        /* \"#utility.yul\":431:443   */\n      revert\n        /* \"#utility.yul\":393:445   */\n    tag_23:\n        /* \"#utility.yul\":464:487   */\n      dup3\n      calldataload\n      swap2\n      pop\n        /* \"#utility.yul\":537:539   */\n      0x20\n        /* \"#utility.yul\":522:540   */\n      dup4\n      add\n        /* \"#utility.yul\":509:541   */\n      calldataload\n      sub(shl(0xa0, 0x01), 0x01)\n        /* \"#utility.yul\":570:601   */\n      dup2\n      and\n        /* \"#utility.yul\":560:602   */\n      dup2\n      eq\n        /* \"#utility.yul\":550:620   */\n      tag_24\n      jumpi\n        /* \"#utility.yul\":616:617   */\n      0x00\n        /* \"#utility.yul\":613:614   */\n      dup1\n        /* \"#utility.yul\":606:618   */\n      revert\n        /* \"#utility.yul\":550:620   */\n    tag_24:\n        /* \"#utility.yul\":639:644   */\n      dup1\n        /* \"#utility.yul\":629:644   */\n      swap2\n      pop\n      pop\n        /* \"#utility.yul\":296:650   */\n      swap3\n      pop\n      swap3\n      swap1\n      pop\n      jump\t// out\n\n    auxdata: 0xa2646970667358221220c6842820241b7df97e4b94da0f02947725f61d5fa4adfed075624da728de10cc64736f6c63430008070033\n}\n",
				"bytecode": {
					"linkReferences": {},
					"object": "6080604052600080546001600160a01b03191673f1b34984ece0ffb0233ad60e7ddab74770e394b917905534801561003657600080fd5b50610177806100466000396000f3fe608060405234801561001057600080fd5b506004361061002b5760003560e01c806391d1485414610030575b600080fd5b61004361003e366004610105565b610057565b604051901515815260200160405180910390f35b60008054604051632474521560e21b8152600481018590526001600160a01b038481166024830152909116906391d148549060440160206040518083038186803b1580156100a457600080fd5b505afa1580156100b8573d6000803e3d6000fd5b505050506040513d601f19601f820116820180604052508101906100dc91906100e3565b9392505050565b6000602082840312156100f557600080fd5b815180151581146100dc57600080fd5b6000806040838503121561011857600080fd5b8235915060208301356001600160a01b038116811461013657600080fd5b80915050925092905056fea2646970667358221220c6842820241b7df97e4b94da0f02947725f61d5fa4adfed075624da728de10cc64736f6c63430008070033",
					"opcodes": "PUSH1 0x80 PUSH1 0x40 MSTORE PUSH1 0x0 DUP1 SLOAD PUSH1 0x1 PUSH1 0x1 PUSH1 0xA0 SHL SUB NOT AND PUSH20 0xF1B34984ECE0FFB0233AD60E7DDAB74770E394B9 OR SWAP1 SSTORE CALLVALUE DUP1 ISZERO PUSH2 0x36 JUMPI PUSH1 0x0 DUP1 REVERT JUMPDEST POP PUSH2 0x177 DUP1 PUSH2 0x46 PUSH1 0x0 CODECOPY PUSH1 0x0 RETURN INVALID PUSH1 0x80 PUSH1 0x40 MSTORE CALLVALUE DUP1 ISZERO PUSH2 0x10 JUMPI PUSH1 0x0 DUP1 REVERT JUMPDEST POP PUSH1 0x4 CALLDATASIZE LT PUSH2 0x2B JUMPI PUSH1 0x0 CALLDATALOAD PUSH1 0xE0 SHR DUP1 PUSH4 0x91D14854 EQ PUSH2 0x30 JUMPI JUMPDEST PUSH1 0x0 DUP1 REVERT JUMPDEST PUSH2 0x43 PUSH2 0x3E CALLDATASIZE PUSH1 0x4 PUSH2 0x105 JUMP JUMPDEST PUSH2 0x57 JUMP JUMPDEST PUSH1 0x40 MLOAD SWAP1 ISZERO ISZERO DUP2 MSTORE PUSH1 0x20 ADD PUSH1 0x40 MLOAD DUP1 SWAP2 SUB SWAP1 RETURN JUMPDEST PUSH1 0x0 DUP1 SLOAD PUSH1 0x40 MLOAD PUSH4 0x24745215 PUSH1 0xE2 SHL DUP2 MSTORE PUSH1 0x4 DUP2 ADD DUP6 SWAP1 MSTORE PUSH1 0x1 PUSH1 0x1 PUSH1 0xA0 SHL SUB DUP5 DUP2 AND PUSH1 0x24 DUP4 ADD MSTORE SWAP1 SWAP2 AND SWAP1 PUSH4 0x91D14854 SWAP1 PUSH1 0x44 ADD PUSH1 0x20 PUSH1 0x40 MLOAD DUP1 DUP4 SUB DUP2 DUP7 DUP1 EXTCODESIZE ISZERO DUP1 ISZERO PUSH2 0xA4 JUMPI PUSH1 0x0 DUP1 REVERT JUMPDEST POP GAS STATICCALL ISZERO DUP1 ISZERO PUSH2 0xB8 JUMPI RETURNDATASIZE PUSH1 0x0 DUP1 RETURNDATACOPY RETURNDATASIZE PUSH1 0x0 REVERT JUMPDEST POP POP POP POP PUSH1 0x40 MLOAD RETURNDATASIZE PUSH1 0x1F NOT PUSH1 0x1F DUP3 ADD AND DUP3 ADD DUP1 PUSH1 0x40 MSTORE POP DUP2 ADD SWAP1 PUSH2 0xDC SWAP2 SWAP1 PUSH2 0xE3 JUMP JUMPDEST SWAP4 SWAP3 POP POP POP JUMP JUMPDEST PUSH1 0x0 PUSH1 0x20 DUP3 DUP5 SUB SLT ISZERO PUSH2 0xF5 JUMPI PUSH1 0x0 DUP1 REVERT JUMPDEST DUP2 MLOAD DUP1 ISZERO ISZERO DUP2 EQ PUSH2 0xDC JUMPI PUSH1 0x0 DUP1 REVERT JUMPDEST PUSH1 0x0 DUP1 PUSH1 0x40 DUP4 DUP6 SUB SLT ISZERO PUSH2 0x118 JUMPI PUSH1 0x0 DUP1 REVERT JUMPDEST DUP3 CALLDATALOAD SWAP2 POP PUSH1 0x20 DUP4 ADD CALLDATALOAD PUSH1 0x1 PUSH1 0x1 PUSH1 0xA0 SHL SUB DUP2 AND DUP2 EQ PUSH2 0x136 JUMPI PUSH1 0x0 DUP1 REVERT JUMPDEST DUP1 SWAP2 POP POP SWAP3 POP SWAP3 SWAP1 POP JUMP INVALID LOG2 PUSH5 0x6970667358 0x22 SLT KECCAK256 0xC6 DUP5 0x28 KECCAK256 0x24 SHL PUSH30 0xF97E4B94DA0F02947725F61D5FA4ADFED075624DA728DE10CC64736F6C63 NUMBER STOP ADDMOD SMOD STOP CALLER "
				},
				"gasEstimates": {
					"creation": {
						"codeDepositCost": "75000",
						"executionCost": "24359",
						"totalCost": "99359"
					},
					"external": {
						"hasRole(bytes32,address)": "infinite"
					}
				},
				"methodIdentifiers": {
					"hasRole(bytes32,address)": "91d14854"
				}
			},
			"storageLayout": {
				"storage": [
					{
						"astId": 29,
						"contract": "contracts/ViperGovernorTimelockAttack.sol:TimelockAttack",
						"label": "timelock",
						"offset": 0,
						"slot": "0",
						"type": "t_contract(TimelockController)17"
					}
				],
				"types": {
					"t_contract(TimelockController)17": {
						"encoding": "inplace",
						"label": "contract TimelockController",
						"numberOfBytes": "20"
					}
				}
			},
			"userdoc": {
				"kind": "user",
				"methods": {},
				"version": 1
			}
		}
	}
}