{
	"contracts/ViperGovernorTimelock.sol": {
		"TimelockController": {
			"abi": [
				{
					"inputs": [
						{
							"internalType": "bytes32",
							"name": "role",
							"type": "bytes32"
						},
						{
							"internalType": "address",
							"name": "account",
							"type": "address"
						}
					],
					"name": "hasRole",
					"outputs": [
						{
							"internalType": "bool",
							"name": "",
							"type": "bool"
						}
					],
					"stateMutability": "view",
					"type": "function"
				}
			],
			"devdoc": {
				"kind": "dev",
				"methods": {},
				"version": 1
			},
			"evm": {
				"assembly": "    /* \"contracts/ViperGovernorTimelock.sol\":58:215  contract TimelockController {... */\n  mstore(0x40, 0x80)\n  callvalue\n  dup1\n  iszero\n  tag_1\n  jumpi\n  0x00\n  dup1\n  revert\ntag_1:\n  pop\n  dataSize(sub_0)\n  dup1\n  dataOffset(sub_0)\n  0x00\n  codecopy\n  0x00\n  return\nstop\n\nsub_0: assembly {\n        /* \"contracts/ViperGovernorTimelock.sol\":58:215  contract TimelockController {... */\n      mstore(0x40, 0x80)\n      callvalue\n      dup1\n      iszero\n      tag_1\n      jumpi\n      0x00\n      dup1\n      revert\n    tag_1:\n      pop\n      jumpi(tag_2, lt(calldatasize, 0x04))\n      shr(0xe0, calldataload(0x00))\n      dup1\n      0x91d14854\n      eq\n      tag_3\n      jumpi\n    tag_2:\n      0x00\n      dup1\n      revert\n        /* \"contracts/ViperGovernorTimelock.sol\":92:213  function hasRole(bytes32 role, address account) public view returns (bool) {... */\n    tag_3:\n      tag_4\n      tag_5\n      calldatasize\n      0x04\n      tag_6\n      jump\t// in\n    tag_5:\n      tag_7\n      jump\t// in\n    tag_4:\n      mload(0x40)\n        /* \"#utility.yul\":538:552   */\n      swap1\n      iszero\n        /* \"#utility.yul\":531:553   */\n      iszero\n        /* \"#utility.yul\":513:554   */\n      dup2\n      mstore\n        /* \"#utility.yul\":501:503   */\n      0x20\n        /* \"#utility.yul\":486:504   */\n      add\n        /* \"contracts/ViperGovernorTimelock.sol\":92:213  function hasRole(bytes32 role, address account) public view returns (bool) {... */\n      mload(0x40)\n      dup1\n      swap2\n      sub\n      swap1\n      return\n    tag_7:\n        /* \"contracts/ViperGovernorTimelock.sol\":161:165  bool */\n      0x00\n        /* \"contracts/ViperGovernorTimelock.sol\":184:206  hasRole(role, account) */\n      tag_11\n        /* \"contracts/ViperGovernorTimelock.sol\":192:196  role */\n      dup4\n        /* \"contracts/ViperGovernorTimelock.sol\":198:205  account */\n      dup4\n        /* \"contracts/ViperGovernorTimelock.sol\":184:191  hasRole */\n      tag_7\n        /* \"contracts/ViperGovernorTimelock.sol\":184:206  hasRole(role, account) */\n      jump\t// in\n    tag_11:\n        /* \"contracts/ViperGovernorTimelock.sol\":177:206  return hasRole(role, account) */\n      swap4\n        /* \"contracts/ViperGovernorTimelock.sol\":92:213  function hasRole(bytes32 role, address account) public view returns (bool) {... */\n      swap3\n      pop\n      pop\n      pop\n      jump\t// out\n        /* \"#utility.yul\":14:368   */\n    tag_6:\n        /* \"#utility.yul\":82:88   */\n      0x00\n        /* \"#utility.yul\":90:96   */\n      dup1\n        /* \"#utility.yul\":143:145   */\n      0x40\n        /* \"#utility.yul\":131:140   */\n      dup4\n        /* \"#utility.yul\":122:129   */\n      dup6\n        /* \"#utility.yul\":118:141   */\n      sub\n        /* \"#utility.yul\":114:146   */\n      slt\n        /* \"#utility.yul\":111:163   */\n      iszero\n      tag_14\n      jumpi\n        /* \"#utility.yul\":159:160   */\n      0x00\n        /* \"#utility.yul\":156:157   */\n      dup1\n        /* \"#utility.yul\":149:161   */\n      revert\n        /* \"#utility.yul\":111:163   */\n    tag_14:\n        /* \"#utility.yul\":182:205   */\n      dup3\n      calldataload\n      swap2\n      pop\n        /* \"#utility.yul\":255:257   */\n      0x20\n        /* \"#utility.yul\":240:258   */\n      dup4\n      add\n        /* \"#utility.yul\":227:259   */\n      calldataload\n      sub(shl(0xa0, 0x01), 0x01)\n        /* \"#utility.yul\":288:319   */\n      dup2\n      and\n        /* \"#utility.yul\":278:320   */\n      dup2\n      eq\n        /* \"#utility.yul\":268:338   */\n      tag_15\n      jumpi\n        /* \"#utility.yul\":334:335   */\n      0x00\n        /* \"#utility.yul\":331:332   */\n      dup1\n        /* \"#utility.yul\":324:336   */\n      revert\n        /* \"#utility.yul\":268:338   */\n    tag_15:\n        /* \"#utility.yul\":357:362   */\n      dup1\n        /* \"#utility.yul\":347:362   */\n      swap2\n      pop\n      pop\n        /* \"#utility.yul\":14:368   */\n      swap3\n      pop\n      swap3\n      swap1\n      pop\n      jump\t// out\n\n    auxdata: 0xa2646970667358221220f10d28033d1ea620360770d84725315d5e1bc7f0d7c263b765a6f67a5920296a64736f6c63430008070033\n}\n",
				"bytecode": {
					"linkReferences": {},
					"object": "608060405234801561001057600080fd5b5060d18061001f6000396000f3fe6080604052348015600f57600080fd5b506004361060285760003560e01c806391d1485414602d575b600080fd5b603c60383660046061565b6050565b604051901515815260200160405180910390f35b6000605a83836050565b9392505050565b60008060408385031215607357600080fd5b8235915060208301356001600160a01b0381168114609057600080fd5b80915050925092905056fea2646970667358221220f10d28033d1ea620360770d84725315d5e1bc7f0d7c263b765a6f67a5920296a64736f6c63430008070033",
					"opcodes": "PUSH1 0x80 PUSH1 0x40 MSTORE CALLVALUE DUP1 ISZERO PUSH2 0x10 JUMPI PUSH1 0x0 DUP1 REVERT JUMPDEST POP PUSH1 0xD1 DUP1 PUSH2 0x1F PUSH1 0x0 CODECOPY PUSH1 0x0 RETURN INVALID PUSH1 0x80 PUSH1 0x40 MSTORE CALLVALUE DUP1 ISZERO PUSH1 0xF JUMPI PUSH1 0x0 DUP1 REVERT JUMPDEST POP PUSH1 0x4 CALLDATASIZE LT PUSH1 0x28 JUMPI PUSH1 0x0 CALLDATALOAD PUSH1 0xE0 SHR DUP1 PUSH4 0x91D14854 EQ PUSH1 0x2D JUMPI JUMPDEST PUSH1 0x0 DUP1 REVERT JUMPDEST PUSH1 0x3C PUSH1 0x38 CALLDATASIZE PUSH1 0x4 PUSH1 0x61 JUMP JUMPDEST PUSH1 0x50 JUMP JUMPDEST PUSH1 0x40 MLOAD SWAP1 ISZERO ISZERO DUP2 MSTORE PUSH1 0x20 ADD PUSH1 0x40 MLOAD DUP1 SWAP2 SUB SWAP1 RETURN JUMPDEST PUSH1 0x0 PUSH1 0x5A DUP4 DUP4 PUSH1 0x50 JUMP JUMPDEST SWAP4 SWAP3 POP POP POP JUMP JUMPDEST PUSH1 0x0 DUP1 PUSH1 0x40 DUP4 DUP6 SUB SLT ISZERO PUSH1 0x73 JUMPI PUSH1 0x0 DUP1 REVERT JUMPDEST DUP3 CALLDATALOAD SWAP2 POP PUSH1 0x20 DUP4 ADD CALLDATALOAD PUSH1 0x1 PUSH1 0x1 PUSH1 0xA0 SHL SUB DUP2 AND DUP2 EQ PUSH1 0x90 JUMPI PUSH1 0x0 DUP1 REVERT JUMPDEST DUP1 SWAP2 POP POP SWAP3 POP SWAP3 SWAP1 POP JUMP INVALID LOG2 PUSH5 0x6970667358 0x22 SLT KECCAK256 CALL 0xD 0x28 SUB RETURNDATASIZE 0x1E 0xA6 KECCAK256 CALLDATASIZE SMOD PUSH17 0xD84725315D5E1BC7F0D7C263B765A6F67A MSIZE KECCAK256 0x29 PUSH11 0x64736F6C63430008070033 "
				},
				"gasEstimates": {
					"creation": {
						"codeDepositCost": "41800",
						"executionCost": "93",
						"totalCost": "41893"
					},
					"external": {
						"hasRole(bytes32,address)": "infinite"
					}
				},
				"methodIdentifiers": {
					"hasRole(bytes32,address)": "91d14854"
				}
			},
			"storageLayout": {
				"storage": [],
				"types": null
			},
			"userdoc": {
				"kind": "user",
				"methods": {},
				"version": 1
			}
		}
	}
}